{
  "contractName": "Medical",
  "abi": [
    {
      "constant": true,
      "inputs": [],
      "name": "pat_name",
      "outputs": [
        {
          "name": "",
          "type": "string"
        }
      ],
      "payable": false,
      "stateMutability": "view",
      "type": "function",
      "signature": "0x0c9e9f52"
    },
    {
      "constant": true,
      "inputs": [],
      "name": "patCount",
      "outputs": [
        {
          "name": "",
          "type": "uint256"
        }
      ],
      "payable": false,
      "stateMutability": "view",
      "type": "function",
      "signature": "0x6ad0c854"
    },
    {
      "constant": true,
      "inputs": [
        {
          "name": "",
          "type": "uint256"
        }
      ],
      "name": "patient",
      "outputs": [
        {
          "name": "id",
          "type": "uint256"
        },
        {
          "name": "pat_name",
          "type": "string"
        },
        {
          "name": "medi_name",
          "type": "string"
        },
        {
          "name": "price",
          "type": "uint256"
        },
        {
          "name": "owner",
          "type": "address"
        },
        {
          "name": "purchased",
          "type": "bool"
        }
      ],
      "payable": false,
      "stateMutability": "view",
      "type": "function",
      "signature": "0x74607d91"
    },
    {
      "inputs": [],
      "payable": false,
      "stateMutability": "nonpayable",
      "type": "constructor",
      "signature": "constructor"
    },
    {
      "anonymous": false,
      "inputs": [
        {
          "indexed": false,
          "name": "id",
          "type": "uint256"
        },
        {
          "indexed": false,
          "name": "pat_name",
          "type": "string"
        },
        {
          "indexed": false,
          "name": "medi_name",
          "type": "string"
        },
        {
          "indexed": false,
          "name": "price",
          "type": "uint256"
        },
        {
          "indexed": false,
          "name": "owner",
          "type": "address"
        },
        {
          "indexed": false,
          "name": "purchased",
          "type": "bool"
        }
      ],
      "name": "medicineAdded",
      "type": "event",
      "signature": "0x5654b6634e1c381ec1e6791677f568f18691261bcccc50a31c95472ce9ce485e"
    },
    {
      "anonymous": false,
      "inputs": [
        {
          "indexed": false,
          "name": "id",
          "type": "uint256"
        },
        {
          "indexed": false,
          "name": "pat_name",
          "type": "string"
        },
        {
          "indexed": false,
          "name": "medi_name",
          "type": "string"
        },
        {
          "indexed": false,
          "name": "price",
          "type": "uint256"
        },
        {
          "indexed": false,
          "name": "owner",
          "type": "address"
        },
        {
          "indexed": false,
          "name": "purchased",
          "type": "bool"
        }
      ],
      "name": "medicinePurchased",
      "type": "event",
      "signature": "0x5942a1946237f55f0ba0b044c047b2e3ba5932e9611740ffc9933cbdbb169a1d"
    },
    {
      "constant": false,
      "inputs": [
        {
          "name": "_name",
          "type": "string"
        },
        {
          "name": "_medi",
          "type": "string"
        },
        {
          "name": "_price",
          "type": "uint256"
        }
      ],
      "name": "addMedicine",
      "outputs": [],
      "payable": false,
      "stateMutability": "nonpayable",
      "type": "function",
      "signature": "0x082f5689"
    },
    {
      "constant": false,
      "inputs": [
        {
          "name": "_id",
          "type": "uint256"
        }
      ],
      "name": "purchaseMedicine",
      "outputs": [],
      "payable": true,
      "stateMutability": "payable",
      "type": "function",
      "signature": "0x72cf2f24"
    }
  ],
  "bytecode": "0x6080604052600060015534801561001557600080fd5b506040805190810160405280601681526020017f53656375726564204d65646963616c2053797374656d0000000000000000000081525060009080519060200190610061929190610067565b5061010c565b828054600181600116156101000203166002900490600052602060002090601f016020900481019282601f106100a857805160ff19168380011785556100d6565b828001600101855582156100d6579182015b828111156100d55782518255916020019190600101906100ba565b5b5090506100e391906100e7565b5090565b61010991905b808211156101055760008160009055506001016100ed565b5090565b90565b610f8b8061011b6000396000f3fe60806040526004361061006d576000357c0100000000000000000000000000000000000000000000000000000000900463ffffffff168063082f5689146100725780630c9e9f52146101db5780636ad0c8541461026b57806372cf2f241461029657806374607d91146102c4575b600080fd5b34801561007e57600080fd5b506101d96004803603606081101561009557600080fd5b81019080803590602001906401000000008111156100b257600080fd5b8201836020820111156100c457600080fd5b803590602001918460018302840111640100000000831117156100e657600080fd5b91908080601f016020809104026020016040519081016040528093929190818152602001838380828437600081840152601f19601f8201169050808301925050505050505091929192908035906020019064010000000081111561014957600080fd5b82018360208201111561015b57600080fd5b8035906020019184600183028401116401000000008311171561017d57600080fd5b91908080601f016020809104026020016040519081016040528093929190818152602001838380828437600081840152601f19601f82011690508083019250505050505050919291929080359060200190929190505050610430565b005b3480156101e757600080fd5b506101f06106e8565b6040518080602001828103825283818151815260200191508051906020019080838360005b83811015610230578082015181840152602081019050610215565b50505050905090810190601f16801561025d5780820380516001836020036101000a031916815260200191505b509250505060405180910390f35b34801561027757600080fd5b50610280610786565b6040518082815260200191505060405180910390f35b6102c2600480360360208110156102ac57600080fd5b810190808035906020019092919050505061078c565b005b3480156102d057600080fd5b506102fd600480360360208110156102e757600080fd5b8101908080359060200190929190505050610cd2565b6040518087815260200180602001806020018681526020018573ffffffffffffffffffffffffffffffffffffffff1673ffffffffffffffffffffffffffffffffffffffff16815260200184151515158152602001838103835288818151815260200191508051906020019080838360005b8381101561038957808201518184015260208101905061036e565b50505050905090810190601f1680156103b65780820380516001836020036101000a031916815260200191505b50838103825287818151815260200191508051906020019080838360005b838110156103ef5780820151818401526020810190506103d4565b50505050905090810190601f16801561041c5780820380516001836020036101000a031916815260200191505b509850505050505050505060405180910390f35b6000835111151561044057600080fd5b6000825111151561045057600080fd5b60008111151561045f57600080fd5b60016000815480929190600101919050555060c06040519081016040528060015481526020018481526020018381526020018281526020013373ffffffffffffffffffffffffffffffffffffffff168152602001600015158152506002600060015481526020019081526020016000206000820151816000015560208201518160010190805190602001906104f5929190610e6b565b506040820151816002019080519060200190610512929190610e6b565b506060820151816003015560808201518160040160006101000a81548173ffffffffffffffffffffffffffffffffffffffff021916908373ffffffffffffffffffffffffffffffffffffffff16021790555060a08201518160040160146101000a81548160ff0219169083151502179055509050507f5654b6634e1c381ec1e6791677f568f18691261bcccc50a31c95472ce9ce485e6001548484843360006040518087815260200180602001806020018681526020018573ffffffffffffffffffffffffffffffffffffffff1673ffffffffffffffffffffffffffffffffffffffff16815260200184151515158152602001838103835288818151815260200191508051906020019080838360005b8381101561063d578082015181840152602081019050610622565b50505050905090810190601f16801561066a5780820380516001836020036101000a031916815260200191505b50838103825287818151815260200191508051906020019080838360005b838110156106a3578082015181840152602081019050610688565b50505050905090810190601f1680156106d05780820380516001836020036101000a031916815260200191505b509850505050505050505060405180910390a1505050565b60008054600181600116156101000203166002900480601f01602080910402602001604051908101604052809291908181526020018280546001816001161561010002031660029004801561077e5780601f106107535761010080835404028352916020019161077e565b820191906000526020600020905b81548152906001019060200180831161076157829003601f168201915b505050505081565b60015481565b610794610eeb565b6002600083815260200190815260200160002060c0604051908101604052908160008201548152602001600182018054600181600116156101000203166002900480601f0160208091040260200160405190810160405280929190818152602001828054600181600116156101000203166002900480156108565780601f1061082b57610100808354040283529160200191610856565b820191906000526020600020905b81548152906001019060200180831161083957829003601f168201915b50505050508152602001600282018054600181600116156101000203166002900480601f0160208091040260200160405190810160405280929190818152602001828054600181600116156101000203166002900480156108f85780601f106108cd576101008083540402835291602001916108f8565b820191906000526020600020905b8154815290600101906020018083116108db57829003601f168201915b50505050508152602001600382015481526020016004820160009054906101000a900473ffffffffffffffffffffffffffffffffffffffff1673ffffffffffffffffffffffffffffffffffffffff1673ffffffffffffffffffffffffffffffffffffffff1681526020016004820160149054906101000a900460ff1615151515815250509050600081608001519050600082600001511180156109a15750600154826000015111155b15156109ac57600080fd5b816060015134101515156109bf57600080fd5b8160a001511515156109d057600080fd5b3373ffffffffffffffffffffffffffffffffffffffff168173ffffffffffffffffffffffffffffffffffffffff1614151515610a0b57600080fd5b33826080019073ffffffffffffffffffffffffffffffffffffffff16908173ffffffffffffffffffffffffffffffffffffffff168152505060018260a00190151590811515815250508160026000858152602001908152602001600020600082015181600001556020820151816001019080519060200190610a8e929190610e6b565b506040820151816002019080519060200190610aab929190610e6b565b506060820151816003015560808201518160040160006101000a81548173ffffffffffffffffffffffffffffffffffffffff021916908373ffffffffffffffffffffffffffffffffffffffff16021790555060a08201518160040160146101000a81548160ff0219169083151502179055509050508073ffffffffffffffffffffffffffffffffffffffff166108fc349081150290604051600060405180830381858888f19350505050158015610b66573d6000803e3d6000fd5b507f5942a1946237f55f0ba0b044c047b2e3ba5932e9611740ffc9933cbdbb169a1d838360200151846040015185606001513360016040518087815260200180602001806020018681526020018573ffffffffffffffffffffffffffffffffffffffff1673ffffffffffffffffffffffffffffffffffffffff16815260200184151515158152602001838103835288818151815260200191508051906020019080838360005b83811015610c27578082015181840152602081019050610c0c565b50505050905090810190601f168015610c545780820380516001836020036101000a031916815260200191505b50838103825287818151815260200191508051906020019080838360005b83811015610c8d578082015181840152602081019050610c72565b50505050905090810190601f168015610cba5780820380516001836020036101000a031916815260200191505b509850505050505050505060405180910390a1505050565b6002602052806000526040600020600091509050806000015490806001018054600181600116156101000203166002900480601f016020809104026020016040519081016040528092919081815260200182805460018160011615610100020316600290048015610d845780601f10610d5957610100808354040283529160200191610d84565b820191906000526020600020905b815481529060010190602001808311610d6757829003601f168201915b505050505090806002018054600181600116156101000203166002900480601f016020809104026020016040519081016040528092919081815260200182805460018160011615610100020316600290048015610e225780601f10610df757610100808354040283529160200191610e22565b820191906000526020600020905b815481529060010190602001808311610e0557829003601f168201915b5050505050908060030154908060040160009054906101000a900473ffffffffffffffffffffffffffffffffffffffff16908060040160149054906101000a900460ff16905086565b828054600181600116156101000203166002900490600052602060002090601f016020900481019282601f10610eac57805160ff1916838001178555610eda565b82800160010185558215610eda579182015b82811115610ed9578251825591602001919060010190610ebe565b5b509050610ee79190610f3a565b5090565b60c06040519081016040528060008152602001606081526020016060815260200160008152602001600073ffffffffffffffffffffffffffffffffffffffff1681526020016000151581525090565b610f5c91905b80821115610f58576000816000905550600101610f40565b5090565b9056fea165627a7a72305820a900c001611fbfe0abdfa030477f7e16b501248e2e756fdb0d0b509a75178f460029",
  "source": "pragma solidity ^0.5.0;\r\n\r\ncontract Medical {\r\n    string public pat_name;\r\n    uint public patCount = 0;\r\n    mapping(uint => Details) public patient;\r\n\r\n    struct Details {\r\n        uint id;\r\n        string pat_name;\r\n        string medi_name;\r\n        uint price;\r\n        address payable owner;\r\n        bool purchased;\r\n    }\r\n    event medicineAdded(\r\n        uint id,\r\n        string pat_name,\r\n        string medi_name,\r\n        uint price,\r\n        address payable owner,\r\n        bool purchased\r\n    );\r\n    event medicinePurchased(\r\n    uint id,\r\n    string pat_name,\r\n    string medi_name,\r\n    uint price,\r\n    address payable owner,\r\n    bool purchased\r\n);\r\n\r\n    constructor() public {\r\n        pat_name = \"Secured Medical System\";\r\n    }\r\nfunction addMedicine(string memory _name,string memory _medi, uint _price) public {\r\n    // Require a valid name\r\n    require(bytes(_name).length > 0);\r\n    require(bytes(_medi).length > 0);\r\n    // Require a valid price\r\n    require(_price > 0);\r\n    // Increment product count\r\n    patCount ++;\r\n    // Create the product\r\n    patient[patCount] = Details(patCount, _name, _medi, _price, msg.sender, false);\r\n    // Trigger an event\r\n    emit medicineAdded(patCount, _name, _medi, _price, msg.sender, false);\r\n}\r\nfunction purchaseMedicine(uint _id) public payable {\r\n    // Fetch the product\r\n    Details memory _pat = patient[_id];\r\n    // Fetch the owner\r\n    address payable _pharm = _pat.owner;\r\n    // Make sure the product has a valid id\r\n    require(_pat.id > 0 && _pat.id <= patCount);\r\n    // Require that there is enough Ether in the transaction\r\n    require(msg.value >= _pat.price);\r\n    // Require that the product has not been purchased already\r\n    require(!_pat.purchased);\r\n    // Require that the buyer is not the seller\r\n    require(_pharm != msg.sender);\r\n    // Transfer ownership to the buyer\r\n    _pat.owner = msg.sender;\r\n    // Mark as purchased\r\n    _pat.purchased = true;\r\n    // Update the product\r\n    patient[_id] = _pat;\r\n    // Pay the seller by sending them Ether\r\n    address(_pharm).transfer(msg.value);\r\n    // Trigger an event\r\n    emit medicinePurchased(_id, _pat.pat_name, _pat.medi_name, _pat.price, msg.sender, true);\r\n}\r\n}",
  "sourcePath": "C:/medical/src/contracts/medical.sol",
  "compiler": {
    "name": "solc",
    "version": "0.5.0+commit.1d4f565a.Emscripten.clang"
  },
  "schemaVersion": "3.0.2",
  "updatedAt": "2020-05-10T13:46:38.275Z",
  "devdoc": {
    "methods": {}
  },
  "userdoc": {
    "methods": {}
  }
}